:020000040800F2
:1000000000040020470100089D0100089F0100082E
:10001000A3010008A7010008AB01000800000000D0
:10002000000000000000000000000000AF01000818
:10003000B101000800000000B74F0008B50100083A
:1000400067010008670100086701000867010008F0
:1000500067010008670100089B020008030400080C
:1000600067010008670100086701000867010008D0
:1000700067010008670100086701000867010008C0
:1000800067010008670100086701000867010008B0
:1000900067010008670100086701000867010008A0
:1000A0006701000867010008670100086701000890
:1000B000F3010008670100086701000867010008F4
:1000C0006701000867010008670100086701000870
:1000D000670100086D05000867010008FF010008BE
:1000E0006701000867010008670100086701000850
:1000F0006701000867010008670100086701000840
:10010000670100086701000867010008670100082F
:10011000670100086701000867010008670100081F
:10012000670100086701000867010008670100080F
:10013000DFF80CD004F0F4FF004800477501000818
:10014000A8100020704708488047084981F30888B4
:1001500007480047FEE7FEE7FEE7FEE7FEE7FEE7AB
:10016000FEE7FEE7FEE7FEE745010008A8100020D5
:100170003101000810B502F042FA03F0AFFA002393
:10018000044A1946044804F005FC03F007FB00206C
:1001900010BD000090020020ED330008704700BF42
:1001A000FEE700BFFEE700BFFEE700BFFEE77047C7
:1001B0007047704710B503F0A5FA00F03BFB082824
:1001C00004D1FA49FA48006803F066FEF94800686D
:1001D000401CF849086008460068B0F5967F03D9CE
:1001E00000200860F449087003F00FFB03F0A5FA43
:1001F00010BD10B503F086FA03F09FFA10BD10B5DC
:1002000003F080FA40F22551EC4801F032F9002861
:1002100040D040F22551E94801F051F9E74801F09A
:10022000C9F8E749E74A12788854E6480078401E42
:10023000085C0D2829D10846E2490978405C0A2863
:1002400023D10021DF480078401EDD4A11540020F0
:100250001146DC4A12788854DA4908701821DA48C5
:100260000068083004F047FFD54804F050FF04460A
:100270000246D349D4480068083004F023FF012027
:10028000D149096881F8250004E0CE480078401C77
:10029000CC49087003F051FA10BD70B503F032FA82
:1002A000012001F0D5FF002877D00020C149086067
:1002B000C6490870C0480078401CBF49087008460D
:1002C0000078012803D1C1480078C1490870BA48B4
:1002D0000078022811DBB848007809280DDCBD48F9
:1002E00000784006000EBB49087008460078B74900
:1002F00009780843B749087040E0AF4800780A28F9
:1003000011DBAD48007811280DDCB248407840067A
:10031000000EB049487008464078AC490978084357
:10032000AC4948702AE0A4480078122811DBA248A2
:10033000007819280DDCA74880784006000EA549F2
:10034000887008468078A14909780843A1498870D7
:1003500014E0994800781A2810DB97480078212883
:100360000CDC9C48C0784006000E9A49C8700846CC
:10037000C0789649097808439649C8708E48007835
:10038000222838D10022002300248B4D2C708F4C62
:100390002478914D2C70002013E02FE000210CE018
:1003A0008C4C245C0C411444E2B28A4D841C2C5DBC
:1003B0000C411C44E3B24C1CE1B20829F0DB441CA4
:1003C000E0B20228EADB02F00104814D2D78AC4254
:1003D00010D15C1C04F001047F4D2D78AC4209D192
:1003E000794C24687B4D2D6825620124764D2D685B
:1003F00085F8274000BF012001F03BFF03F09DF985
:1004000070BD70B503F07EF9022001F021FF0028D5
:1004100078D000206749086001206C490870664860
:100420000078401C6449087008460078012803D110
:1004300066480078664908705F480078022811DB3A
:100440005D48007809280DDC624800784006000EFF
:1004500060490870084600785C49097808435D499E
:10046000087040E0544800780A2811DB52480078B0
:1004700011280DDC574840784006000E5549487059
:1004800008464078514909780843524948702AE0A3
:1004900049480078122811DB4748007819280DDCFC
:1004A0004C4880784006000E4A498870084680789B
:1004B0004649097808434749887014E03E48007867
:1004C0001A2810DB3C48007821280CDC4148C07811
:1004D0004006000E3F49C8700846C0783B4909787D
:1004E00008433C49C87034480078222838D100229B
:1004F00000230024304D2C70344C2478364D2C7061
:10050000002013E02FE000210CE0324C245C0C4171
:100510001444E2B22F4D841C2C5D0C411C44E3B208
:100520004C1CE1B20829F0DB441CE0B20228EADBF3
:1005300002F00104264D2D78AC4210D15C1C04F071
:100540000104254D2D78AC4209D11F4C2468214D62
:100550002D68256201241C4D2D6885F8274000BFB9
:10056000022001F086FE03F0E8F870BD10B503F03C
:10057000C9F840F22551194800F07BFF002855D0FA
:1005800040F22551154800F09AFF144800F012FF80
:10059000C4B200201249086012480068012823D024
:1005A000022836D004283ED13CE00000010400209F
:1005B0004C00002004000020000000200048004003
:1005C000E8030020080000200C00002009000020A3
:1005D0000A000020840300200B00002000380140A6
:1005E0001000002014000020002012490860012C97
:1005F0000BD1084601680068401C0E4A10600E4886
:10060000445402200D49086002E004200B490860B0
:100610000AE0084801680068401C064A1060064865
:10062000445401E000E000BF00BF00BF03F085F8C4
:1006300010BD00001800002001040020140000205C
:100640008B488C49086001208B49086000208B4949
:1006500008607047F0B502460B46FF24FF250026D0
:100660000BE03046771CFEB2105C80EA050184483E
:10067000405C80EA04058348445C1800A3F101074C
:10068000FBB2EED144EA0520F0BD70B505460C463C
:10069000601E295CA01E285C41EA0026A01EC1B293
:1006A0002846FFF7D7FFB04201D1012070BD0020DE
:1006B000FCE72DE9F84F04460D462078287094F8A1
:1006C000018085F80180A078A870E078E870E07873
:1006D00040064FEA10696748D0F800A0B8F1060F4D
:1006E0000DD120790AF80900617909F101000AF8B1
:1006F00000102079287160796871082617E0B8F138
:10070000100F14D160794006000E009020792871F6
:10071000607968710826002706E0F81D205C09EB67
:1007200007010AF801007F1C00988742F5DBB01E24
:10073000C1B22846FFF78EFF8346CBF30721B01ED8
:100740002954701E05F800B04F480660006881B259
:100750004E4802F01EFEBDE8F88F2DE9F05F054619
:100760000C464FF0000AD0462878207068786070F8
:10077000E87840064FEA106A687940064FEA106848
:1007800008F1050684F802803A48D0F800B0002746
:1007900006E00AEB07001BF80010F81C21547F1C30
:1007A0004745F6DBB01EC1B22046FFF753FF814636
:1007B000C9F30721B01E2154701E04F8009032487E
:1007C0000660006881B2314802F0E3FDBDE8F09FA9
:1007D00070B504460D46607805281CD008DC012859
:1007E0000DD002280CD003280BD004281FD10DE017
:1007F000062811D00F2814D0102818D112E017E0C5
:1008000016E029462046FFF7A8FF11E029462046BA
:10081000FFF7A3FF0CE00BE029462046FFF749FF56
:1008200006E005E029462046FFF743FF00E000BF51
:1008300000BF70BD11480068401C104908600846A0
:100840000068052806D101200B49086000201049E6
:1008500008600AE009480068042806D10C480068CE
:10086000042802DD08200449086003480068704736
:10087000940200200C000020140000201000002032
:1008800062510008625200081C000020BC020020D7
:10089000180000202DE9F04107463D462846E9179B
:1008A00005EB11710C11052C48D2DFE804F0030FA1
:1008B0001D2B3900482002F0A7F80646482002F018
:1008C000A3F806460120A84006403AE0482002F07E
:1008D000E5FB0646482002F0E1FB0646A5EB0411C5
:1008E0000120884006402CE04A2002F0D7FB064653
:1008F0004A2002F0D3FB0646A5EB041101208840F4
:1009000006401EE0482002F08CFC0646482002F01B
:1009100088FC0646A5EB041101208840064010E043
:100920004A2002F07EFC06464A2002F07AFC064687
:10093000A5EB041101208840064002E00020BDE83C
:10094000F08100BF0EB10120F9E70020F7E770B594
:1009500005462C46102C13DA0120A04086B2324600
:100960000221402001F0A4FF4FF42F730022114612
:10097000104604F068FA00220221402001F098FF9E
:10098000102C18DB202C16DAA4F11000C4B20120C0
:10099000A04086B232460221402002F023FA4FF4F2
:1009A0002F7300221146104604F04DFA0022022156
:1009B000402002F017FA202C18DB302C16DAA4F1B4
:1009C0002000C4B20120A04086B23246022142205B
:1009D00002F008FA4FF42F7300221146104604F07B
:1009E00032FA00220221422002F0FCF9302C18DBFE
:1009F000402C16DAA4F13000C4B20120A04086B227
:100A000032460221402002F011F94FF42F730022E8
:100A10001146104604F017FA00220221402002F08D
:100A200005F9402C18DB502C16DAA4F14000C4B2B2
:100A30000120A04086B232460221422002F0F6F8A0
:100A40004FF42F7300221146104604F0FCF90022E7
:100A50000221422002F0EAF870BD70B504460A2572
:100A60002046FFF774FF0AE02046FFF713FF00B9A6
:100A70000AE0462300221146104604F0E4F928005B
:100A8000A5F10101CDB2EFD100BF2046FFF702FF73
:100A9000012800D170BD0020FCE7000010B504461D
:100AA000C549601A8C422FD009DCC448201810D0E8
:100AB000B0F5806F16D0B0F5006F4AD11BE0B0F5ED
:100AC000806F2AD0B0F5006F30D0B0F5406F40D1C4
:100AD00035E00121042000F0F6FA0021042000F0A6
:100AE000F2FA37E00121082000F0EDFA0021082099
:100AF00000F0E9FA2EE00121102000F0E4FA0021D4
:100B0000102000F0E0FA25E00121202000F0DBFABF
:100B10000021202000F0D7FA1CE00121402000F045
:100B2000D2FA0021402000F0CEFA13E0012180200B
:100B300000F0C9FA0021802000F0C5FA0AE0012186
:100B4000080200F0C0FA00214FF4807000F0BBFAF8
:100B500000E000BF00BF10BD10B50121084600F045
:100B6000B2FA0021012000F0AEFA10BD2DE9F041EB
:100B7000024600250026002000230024002791F8CB
:100B800003C00CF00F0591F803C01CF0100F03D048
:100B900091F802C04CEA0505B1F800C01CF0FF0F47
:100BA00031D0146800202BE04FF0010C0CFA00F358
:100BB000B1F800C00CEA03069E4220D183004FF03A
:100BC0000F0C0CFA03F7BC4305FA03FC4CEA0404CF
:100BD00091F803C0BCF1280F06D14FF0010C0CFABC
:100BE00000FCC2F814C00AE091F803C0BCF1480F41
:100BF00005D14FF0010C0CFA00FCC2F810C0401CEB
:100C00000828D1D31460B1F800C0BCF1FF0F34DD67
:100C1000546800202EE000F1080C4FF0010808FA9B
:100C20000CF3B1F800C00CEA03069E4221D1830008
:100C30004FF00F0C0CFA03F7BC4305FA03FC4CEA27
:100C4000040491F803C0BCF1280F05D100F1080C91
:100C500008FA0CF8C2F8148091F803C0BCF1480FF0
:100C600007D100F1080C4FF0010808FA0CF8C2F89F
:100C70001080401C0828CED35460BDE8F0814FF6A8
:100C8000FF710180022181700421C170704702460A
:100C9000002093680B4201D0012000E00020704743
:100CA0000146886880B2704702460020D3680B4234
:100CB00001D0012000E0002070470146C86880B2E2
:100CC000704701617047416170470AB1016100E0FE
:100CD00041617047C16070474FF480320A438261BE
:100CE0008161826182698269704702460020344BCB
:100CF00018684FF68073184040EA02100843304BE2
:100D0000186070472F49C8617047F0B50A46002344
:100D10000024002100252A4E7168C0F3034583B2E8
:100D200000F44016B6F5401F08D121F07061244E42
:100D3000766826F07066224F7E6012E000F480161E
:100D4000B6F5801F06D1032606FA05F4A14341F04B
:100D5000706106E0460D360103FA06F6B14341F034
:100D6000706122B1460D360103FA06F63143144E86
:100D70007160F0BD30B500228B071C0F0F2303FA02
:100D800004F20F4B08338C1053F8243093430C4C6F
:100D900008348D1044F8253023468C1053F8243045
:100DA0008C07240F00FA04F42343054C08348D10FB
:100DB00044F8253030BD00000014014000F8FEBFAB
:100DC0000000014000002042DA48006840F00100C5
:100DD000D849086008464068D7490840D549486066
:100DE00008460068D5490840D249086008460068AE
:100DF00020F4802008600846406820F4FE00486027
:100E0000002088607047CB49096821F48031C94AC5
:100E100011601146096821F480211160B0F5803F0E
:100E200003D0B0F5802F0ED106E0C249096841F425
:100E30008031C04A116007E0BE49096841F4A02131
:100E4000BC4A116000E000BF00BF704710B501460A
:100E50000022002300204A11012A02D1B54C236848
:100E600006E0022A02D1B34C236A01E0B14C636A66
:100E700001F01F02012494401C4201D0012000E037
:100E8000002010BD70B500240025002600BF3120D1
:100E9000FFF7DCFF0646641C16B9B4F5A06FF6D167
:100EA0003120FFF7D3FF08B1012500E000252846D7
:100EB00070BD014600209F4A106820F0F80040EA0B
:100EC000C100106070479E490860704702460020CC
:100ED000984B586820F47C1042EA01031843954B64
:100EE0005860704796490866704701460020914A4D
:100EF000506820F003000843506070478D484068F8
:100F000000F00C007047014600208A4A506820F02B
:100F1000F00008435060704701460020854A506841
:100F200020F4E06008435060704701460020814A89
:100F3000506820F4605040EAC1005060704729B109
:100F40007C4A527A02437B4B5A7206E0794A527AC3
:100F5000C343DBB21A40774B5A7270477949086035
:100F6000704701460020734A506820F4404008430F
:100F7000506070470021744A11706E4A82F8201048
:100F8000012802D0042808D103E001216E4A117023
:100F900004E005216C4A117000E000BF00BF7047FB
:100FA0006A49086070476349096A0143614A1162EE
:100FB000704767490860704730B50021002200245F
:100FC00000235C4D6D6805F00C0121B1042905D0AA
:100FD000082923D105E05F4D056022E05D4D0560E5
:100FE0001FE0544D6D6805F47012022505EB924226
:100FF000504D6D6805F480341CB9574D554305605C
:101000000BE04C4D6D6815F4003F03D0524D554335
:10101000056002E04F4D5543056002E04D4D05600F
:1010200000BF00BF434D6D6805F0F00109094B4D4D
:101030006B5C0568DD4045603E4D6D6805F4E06120
:10104000090A464D6B5C4568DD408560394D6D6829
:1010500005F46051C90A414D6B5C4568DD40C560CF
:10106000344D6D6805F44041890B3D4D6B5CC5689E
:10107000B5FBF3F5056130BD29B12E4A5269024333
:101080002C4B5A6104E02B4A52698243294B5A6126
:10109000704729B1274A92690243264B9A6104E0BE
:1010A000244A92698243234B9A61704729B1214AAD
:1010B000D26902431F4BDA6104E01E4AD2698243BF
:1010C0001C4BDA61704729B11A4AD2680243194BA6
:1010D000DA6004E0174AD2688243164BDA60704740
:1010E00029B1144A12690243124B1A6104E0114AF1
:1010F000126982430F4B1A6170471A4908607047A2
:101100000F49C86470470B49C87170470948406A65
:1011100040F0807007494862704701460020054A48
:1011200092680A4201D0012000E000207047014986
:1011300088727047001002400000FFF8FFFFF6FEC3
:1011400000004242D8004242201002408004424245
:101150003C04424200127A0000093D0020000020B9
:10116000300000204004424210B50446D949601ABC
:101170008C422BD006DCD848201813D0B0F5806FF5
:1011800038D119E0B0F5806F2AD0B0F56C4F31D16D
:1011900001218803FFF797FF00214FF48040FFF7FC
:1011A00092FF28E001214804FFF79AFF00214FF445
:1011B0000030FFF795FF1EE001218804FFF790FF44
:1011C00000214FF48020FFF78BFF14E00121C804B9
:1011D000FFF786FF00214FF40020FFF781FF0AE0B0
:1011E00001210805FFF77CFF00214FF48010FFF775
:1011F00077FF00E000BF00BF10BD2DE9F04786B0CB
:1012000005460E460024A24600BF00BF00272F4619
:101210002C8A4CF6FF700440F08804432C82AC8981
:101220004EF6F3100440B0883189084371890843B1
:101230000443AC81AC8A4FF6FF400440B0890443BC
:10124000AC8201A8FFF7B8FEA448874202D1DDF8BE
:1012500010A001E0DDF80CA00AEBCA0000EB0A10B8
:1012600031688900B0FBF1F86420B8FBF0F00401AC
:101270002009642101FB1089322000EB0910B0FB2A
:10128000F1F000F00F0004432C8106B0BDE8F087B8
:101290004FF41651016000218180C18001810C2131
:1012A000418100218181704710B502460020108ADB
:1012B0004FF2FF0318400B884C8823438C8823434C
:1012C000CC8823431843108210BD00210180418047
:1012D0008180C180704721B1828942F400528281AD
:1012E00004E082894DF6FF731A4082817047F0B5A1
:1012F000034600240026002500201846C1F34214AE
:1013000001F01F06012707FA06F5012C01D10C3068
:1013100004E0022C01D1103000E014301AB107684B
:101320002F43076002E00768AF430760F0BD10B5C8
:101330001AB1838A0B43838204E0838ACC43A4B22C
:101340002340838210BD028A4FF6F0731A40028256
:10135000028A0A430282704782894FF2FF731A4061
:10136000828182890A438281704721B1828942F059
:101370000202828104E082894FF6FD731A40828165
:101380007047028A4FF6DF731A400282028A0A43CC
:101390000282704721B1028A42F48042028204E054
:1013A000028A4BF6FF731A4002827047C1F30802AB
:1013B0008280704701468888C0F3080070478189A1
:1013C00041F0010181817047028BD2B20283028B0E
:1013D00042EA012202837047028B02F47F420283B9
:1013E000028B0A430283704721B1828A42F02002B5
:1013F000828204E0828A4FF6DF731A40828270474D
:1014000021B1828A42F01002828204E0828A4FF681
:10141000EF731A408282704721B1828A42F008023B
:10142000828204E0828A4FF6F7731A408282704704
:10143000828A4FF6FB731A408282828A0A43828232
:10144000704721B1828A42F00202828204E0828ADD
:101450004FF6FD731A4082827047024600201388BF
:101460000B4201D0012000E000207047CA430280F7
:10147000704770B502460B4600240021002500206D
:10148000C3F3421503F01F01012606FA01F1012DF5
:1014900002D19689314006E0022D02D1168A3140F0
:1014A00001E0968A31401C12012606FA04F41688DF
:1014B000344011B10CB1012000E0002070BD10B526
:1014C000002200230A1201249440A3B2DC430480CA
:1014D00010BD0000004C004000BCFFBF00380140C0
:1014E00010B50446FB49601A8C4245D00CDCB4F1BF
:1014F000804F1DD0F848201823D0B0F5806F29D038
:10150000B0F5006F54D12EE0B0F5806F3DD0B0F54E
:101510008E3F03D0B0F5923F4AD13FE00121C8028F
:10152000FFF7D1FD00214FF40060FFF7CCFD40E054
:1015300001210846FFF7D4FD00210120FFF7D0FD6F
:1015400037E001210220FFF7CBFD00210220FFF749
:10155000C7FD2EE001210420FFF7C2FD0021042079
:10156000FFF7BEFD25E001210820FFF7B9FD0021AE
:101570000820FFF7B5FD1CE001211020FFF7B0FDAA
:1015800000211020FFF7ACFD13E001212020FFF720
:10159000A7FD00212020FFF7A3FD0AE00121480359
:1015A000FFF791FD00214FF40050FFF78CFD00E0A4
:1015B00000BF00BF10BD028802F08F020280CA88FF
:1015C0004B881A4303881A4302808A8882850A88D6
:1015D0000285C24A904202D0C14A904201D10A7AA1
:1015E000028601228282704770B500240022002307
:1015F000058C4FF6FE7635400584028C8388048B7B
:101600004FF68F752C400D882C43751E2A400D898E
:101610002A434D882A43CD888586B04DA84202D002
:10162000AF4DA84213D14FF6F7752A404D892A4392
:101630004FF6FB752A408D882A4347F6FF652B40FD
:1016400047F6FF552B408D892B43CD892B43838053
:101650000483028470BD70B5002400220023058C31
:101660004FF6EF7635400584028C8388048B48F66C
:10167000FF752C400D882D0644EA15444FF6DF75A2
:101680002A400D892D0542EA15424D882D0542EA72
:101690001542CD880587914DA84202D0904DA842B1
:1016A0001BD14FF67F752A404D892D0542EA154220
:1016B0004FF6BF752A408D882D0542EA154247F640
:1016C000FF352B4047F2FF752B408D89AD0443EA6F
:1016D0001543CD89AD0443EA154383800483028416
:1016E00070BD70B5002400220023058C4FF6FF6604
:1016F00035400584028C8388848B4FF68F752C408F
:101700000D882C434FF6FF552A400D892D0642EADD
:1017100015424D882D0642EA1542CD8885876F4DCA
:10172000A84202D06E4DA8421BD14FF2FF752A404D
:101730004D892D0642EA15424FF6FF352A408D8825
:101740002D0642EA154246F6FF752B4045F6FF7519
:101750002B408D892D0543EA1543CD892D0543EA9C
:10176000154383808483028470BD70B500230022FA
:101770000024058C4EF6FF7635400584028C848863
:10178000838B48F6FF752B400D882D0643EA1543E1
:101790004DF6FF752A400D892D0742EA15424D8806
:1017A0002D0742EA1542CD88A0F840504B4DA84283
:1017B00002D04B4DA84205D1C4F30D048D89AD056F
:1017C00044EA154484808383028470BD828B4FF287
:1017D000FF331A408283828B0B0642EA13428283D4
:1017E0007047F0B50C461546002100220026078CF4
:1017F0004EF6FF7C07EA0C070784818B028C2707D3
:101800003E0C40F6FF4739402F063F0C4FEA037C61
:1018100047EA1C4739434DF6FF773A4046F4805774
:101820003A4381830284F0BD828B4FF6F3731A40F2
:101830008283828B0A4382837047F0B50C4615463B
:10184000002100220026078C4FF6FF6C07EA0C07E8
:101850000784818B028C27063E0C4FF60C773940AB
:101860001F0545EA174739434FF6FF573A4046F4FC
:1018700080773A4381830284F0BD028B4FF2FF33BD
:101880001A400283028B0B0642EA1342028370471E
:10189000F0B50C461546002100220026078C4FF6B5
:1018A000EF7C07EA0C070784018B028C27053E0CAE
:1018B00040F6FF4739401F0741EA17412F0641EA2A
:1018C00017414FF6DF773A4046F010073A4301835D
:1018D0000284F0BD0010004000FCFFBF002C01405E
:1018E00000340140028B4FF6F3731A400283028BDF
:1018F0000A4302837047F0B50C46154600210022CA
:10190000068C4FF6FE773E400684018B028C4FF624
:101910000C7631401E0545EA164631437E1E3240A4
:1019200044F00106324301830284F0BD70B50546E0
:101930000C46208850B92389A28861882846FFF781
:10194000DAFFE1882846FFF7CDFF25E0208804284C
:101950000AD12389A28861882846FFF799FFE18888
:101960002846FFF78AFF17E0208808280AD1238934
:10197000A28861882846FFF760FFE1882846FFF7C4
:1019800053FF09E02389A28861882846FFF729FFD1
:10199000E1882846FFF71AFF70BD2DE9F0410546A2
:1019A0000C4600260127608808B9022600E00026C0
:1019B000A088012801D1022700E001272088A0B9D2
:1019C0002389A28861882846FFF795FFE188284689
:1019D000FFF788FF23893A4631462846FFF758FF2C
:1019E000E1882846FFF749FF13E02389A288618830
:1019F0002846FFF74DFFE1882846FFF73EFF238981
:101A00003A4631462846FFF776FFE1882846FFF739
:101A100069FFBDE8F0810A884B881A438B881A4316
:101A2000CB881A430B891A434B891A438B891A4373
:101A3000A0F8442070474FF6FF718180002101809B
:101A4000C180418001727047002101804180818006
:101A5000C180018141818181C18170470021018064
:101A60004180012181800021C180018170470021D6
:101A7000018041808180C1800181418181817047E5
:101A800021B1028842F00102028004E0028840F2A3
:101A9000FE331A400280704731B1B0F8442042F45E
:101AA0000042A0F8442005E0B0F84420C2F30E0242
:101AB000A0F84420704710B51AB183890B43838185
:101AC00004E08389CC43A4B22340838110BD81828A
:101AD000704741EA0203A0F84830704710B51AB1C8
:101AE00083890B43838104E08389CC43A4B22340E0
:101AF000838110BD01894FF6F87211400181704752
:101B00000A46002101894FF68F7319401143018164
:101B1000704730B504460D4629462046FFF7F0FFD2
:101B2000208940F00700208130BD2DE9F0410446B6
:101B30000D4616461F46602D06D13B460122314612
:101B40002046FFF7A5FE05E03B4601223146204630
:101B5000FFF7D1FE29462046FFF7D2FF208940F04B
:101B600007002081BDE8F08170B50C460021018995
:101B7000C9B244EA02051E0645EA16452943018119
:101B800070BD2DE9F04105460E46174698460024E3
:101B900043463A4631462846FFF7E6FF2C894FF682
:101BA000F8710C4044F007044FF68F710C4044F07C
:101BB00070042C81BDE8F081F0B504460D46164650
:101BC0001F463B46324629462046FFF7CDFF208977
:101BD00040F480402081F0BD0185828270470A4632
:101BE0000021018840F28F33194011430180704772
:101BF000F0B50C4615461E4600210022002301893F
:101C0000028B038C4FF6F877394021434FF6FC479F
:101C10003A4040F201173A434FF6DD773B40370533
:101C200045EA17473B43018102830384F0BD0A461E
:101C30000021018B4FF68F731940114301837047C8
:101C40000A460021018B48F6FF731940130641EA4A
:101C50001341018370470A460021818B4FF68F7331
:101C600019401143818370470A460021818B48F651
:101C7000FF731940130641EA13418183704721B174
:101C8000028842F08002028004E0028840F27F3342
:101C90001A400280704721B1828842F0040282809B
:101CA00004E082884FF6FB731A408280704721B1AE
:101CB000828842F00802828004E082884FF6F7733F
:101CC0001A408280704721B1828842F001028280EE
:101CD00004E082884FF6FE731A40828070470A46FD
:101CE0000021018B4FF6F7731940114301837047B0
:101CF0000A460021018B4FF2FF731940130641EA97
:101D00001341018370470A460021818B4FF6F77318
:101D100019401143818370470A460021818B4FF29D
:101D2000FF731940130641EA1341818370470A4645
:101D30000021018B4FF6FB7319401143018370475B
:101D40000A460021018B4FF6FF331940130641EA82
:101D50001341018370470A460021818B4FF6FB73C4
:101D600019401143818370470A460021818B4FF649
:101D7000FF331940130641EA1341818370470A4635
:101D80000021018B4FF67F73194011430183704787
:101D90000A460021018BC1F30E01130641EA1341EB
:101DA000018370470A460021818B4FF67F731940EB
:101DB0001143818370470A460021818BC1F30E01D4
:101DC000130641EA1341818370470A460021018CC2
:101DD0004FF6FD7319401143018470470A460021F4
:101DE000018C4FF6F77319401143018470470A467E
:101DF0000021018C4FF6DF731940130541EA1341AE
:101E0000018470470A460021018C4FF67F73194008
:101E1000130541EA1341018470470A460021018CF1
:101E20004FF6FF531940130641EA134101847047EE
:101E30000A460021018C4FF2FF731940130641EA54
:101E40001341018470470A460021018C4DF6FF734F
:101E50001940130741EA13410184704710B5048CFF
:101E600001238B40DB439BB223400384038C02FAA3
:101E700001F4A4B22343038410BD10B5048C0423E1
:101E80008B40DB439BB223400384038C02FA01F4B2
:101E9000A4B22343038410BD30B5048C01238B40CE
:101EA000DB439BB22340038409B1082918D100F118
:101EB000180303EB61031B684FF68F74234000F196
:101EC000180404EB6104236000F1180303EB6103C1
:101ED0001B68134300F1180404EB6104236021E044
:101EE0000B1F9CB200F1180303EB64031B6848F658
:101EF000FF7423400C1FA5B200F1180404EB650425
:101F000023600B1F9CB200F1180303EB64031B68F2
:101F1000140643EA14430C1FA5B200F1180404EBA5
:101F20006504236030BD21B1028842F002020280C4
:101F300004E0028840F2FD331A400280704721B16C
:101F4000028842F00402028004E0028840F2FB337F
:101F50001A400280704721B1828842F0800282805C
:101F600004E082884FF67F731A40828070470288AF
:101F700040F2F7331A40028002880A430280704719
:101F800082884FF68F731A40828082880A4382804B
:101F9000704702894FF6F8731A40028102890A439A
:101FA0000281704702894FF67F731A4002810289CD
:101FB0000A4302817047818470478185704781861A
:101FC00070470187704781877047A0F840107047BD
:101FD0000288D2B2028002880A430280704701461A
:101FE000888E70470146088F70470146888F70477A
:101FF0000146B1F8400070470146888C70470146A1
:10200000088D704702460020138A0B4201D0012040
:1020100000E000207047CA430282704730B5024694
:10202000002000230024158A05EA0103958905EAAA
:10203000010413B10CB1012000E0002030BDCA43FF
:102040000282704736490143364A1160704770B5C5
:10205000002100230F22C4784CB3324C246804F4CE
:10206000E064C4F5E0644FEA1421C1F1040322FAEC
:1020700001F2447804FA03F1847804EA020444EAA1
:1020800001014FEA0111284C0678A155047804F0AB
:102090001F054FF0010404FA05F405784FEA6515B1
:1020A0004FF0E02606EB8505C5F8004109E004780D
:1020B00004F01F050124AC401C4D0678761145F84C
:1020C000264070BD1A4A0A4002431A4B1A607047F4
:1020D00041B1194A126842EA00024FF0E023C3F806
:1020E000102D07E0144A126822EA00024FF0E023A4
:1020F000C3F8102D7047042808D14FF0E02109697A
:1021000041F004014FF0E022116107E04FF0E021BF
:10211000096921F004014FF0E022116170470000CD
:102120000000FA050CED00E000E400E080E100E0D2
:1021300080FFFF1F08ED00E010ED00E000204E4999
:1021400008604E49C1F804044D49086001F10401DA
:1021500008604C484C4908607047817900294DD08F
:102160004649D1F8001402689143444AC2F8001469
:102170001146D1F8041402689143444A1160017970
:102180003E4A1144D1F80014026841EA0201027982
:102190003A4B1A44C2F800141946D1F808140268E0
:1021A00021EA02011A46C2F808141146D1F80C14AB
:1021B000026821EA0201364A11604179102910D1E2
:1021C0001946D1F80814026811431A46C2F80814D7
:1021D0001146D1F80C14026811431A46C2F80C14C7
:1021E00018E04179254A1144D1F8001402681143DE
:1021F0004279224B1A44C2F800140BE001791F4ABD
:102200001144D1F800140268914302791B4B1A441F
:10221000C2F8001470470021016001710C21417166
:102220000021817170471B49096841EA0001134A86
:10223000C2F81014704701460020134A12680A427F
:1022400001D0012000E0002070470F49086070476E
:10225000014600200022084B1B6803EA0102074BDD
:10226000D3F814340B4202D00AB1012000E0002060
:1022700070470549086070470004014000000140B4
:1022800008040140FFFF070014040140040401405A
:102290000C0401401004014000210020434A126850
:1022A00042F48032414B1A6000BF404A126802F487
:1022B0000030491C10B9B1F5A06FF6D13B4A126845
:1022C00012F4003F01D0012000E00020012843D19A
:1022D000374A126842F01002354B1A601A461268EB
:1022E00022F003021A601A46126842F002021A60D3
:1022F0002E4A52682D4B5A601A4652685A601A4646
:10230000526842F480625A601A46526822F47C1283
:102310005A601A46526842F4E8125A601A46126825
:1023200042F080721A6000BF204A126812F0007FEB
:10233000FAD01E4A526822F003021C4B5A601A4619
:10234000526842F002025A6000BF184A526802F016
:102350000C02082AF9D101E000BFFEE7704710B572
:10236000FFF79AFF10BD10B51048006840F001005B
:102370000E490860084640680E4908400B4948600D
:10238000084600680C49084008490860084600688B
:1023900020F4802008600846406820F4FE00486071
:1023A00000208860FFF7DBFF10BD00000010024036
:1023B000002002400000FFF8FFFFF6FE08B50121F3
:1023C0000802FEF766FE4FF4C050ADF80000102082
:1023D0008DF8030003208DF802006946D748FEF708
:1023E000C5FB4FF4C051D548FEF76BFC4FF480603D
:1023F000ADF8000004208DF803006946CF48FEF7D1
:10240000B5FB08BD10B586B0044601218804FEF76F
:102410004DFE01213820FEF73CFE4FF48060ADF800
:10242000040003208DF8060018208DF8070001A98C
:10243000C348FEF79BFB04208DF807004002ADF86F
:10244000040001A9BE48FEF791FB02940020ADF8FC
:102450000C00ADF80E00ADF81000ADF814000C2023
:10246000ADF8120002A9B748FEF7C7FE4021B548F3
:10247000FEF7FCFF012240F22551B248FEF737FF7C
:102480000121B048FEF727FF06B010BD0EB50121AF
:102490000920FEF7FEFD0220ADF8080048208DF867
:1024A0000B0002A9A648FEF761FB0120ADF8080069
:1024B00048208DF80B0002A9A148FEF757FB002128
:1024C0000120FEF757FC0120FFF7D3FE00208DF816
:1024D000040008208DF80500012000908DF806000A
:1024E0006846FFF73AFE01210846FEF743FC02204A
:1024F000FFF7BFFE00208DF8040008208DF80500CE
:102500000220009001208DF806006846FFF725FEA6
:102510000EBD08B54FF4C060FFF794FD1C208DF888
:10252000000000208DF8010003208DF8020001203A
:102530008DF803006846FFF78AFD27208DF800001C
:1025400000208DF801008DF8020001208DF80300B5
:102550006846FFF77CFD25208DF8000000208DF8EF
:10256000010002208DF8020001208DF8030068466A
:10257000FFF76DFD07208DF8000000208DF80100A9
:102580008DF8020001208DF803006846FFF75FFD1B
:1025900006208DF8000000208DF8010001208DF844
:1025A00002008DF803006846FFF751FD08BD66493B
:1025B00009684FF47A72B1FBF2F0B0F1807F00D37A
:1025C0001CE020F07F41491E4FF0E022516100BF26
:1025D0005117002905DA0F2109015C4A0B23D15458
:1025E00004E00F2109015A4A5317D15400BF0021BA
:1025F0004FF0E02291610721116100BF704710B5D3
:10260000FFF7B1FEFFF7D3FFFFF783FF4FF4614001
:1026100000F04CFEFFF73AFF4FF41650FFF7F2FEC2
:10262000FFF7CCFE00F006FC10BD10B500214FF006
:102630000060FFF747FD10BD0EB501210846FEF70B
:1026400035FD4FF08040FEF74BFF41F61F40ADF8DF
:1026500000000020ADF80200C820ADF80400002002
:10266000ADF806008DF8080069464FF08040FEF78F
:10267000A2FF01218807FFF7CEFC01221146900737
:10268000FFF719FA00214FF08040FFF7F9F90EBD6E
:1026900008B501210420FEF7FCFC4FF48070ADF872
:1026A000000003208DF8020014208DF80300694615
:1026B0002848FEF75BFA4FF480712648FEF701FBCD
:1026C00008BD08B507208DF8000000208DF8010036
:1026D0008DF8020001208DF803006846FFF7B7FC73
:1026E00006208DF8000000208DF8010001208DF8F3
:1026F00002008DF803006846FFF7A9FC08BD08B585
:1027000007208DF8000000208DF801008DF80200F0
:102710008DF803006846FFF79AFC06208DF800004C
:1027200000208DF8010001208DF8020000208DF8B6
:1027300003006846FFF78BFC08BD00000020014045
:10274000000C0140004800406453000818ED00E010
:1027500000E400E0000801400F2000BF0100A0F1EC
:10276000010290B2FAD1704710B50121FF48FEF77F
:10277000AAFAFFF7F1FF0221FC48FEF7A2FAFFF7E1
:10278000EBFFFFF7E9FFFFF7E7FFFFF7E5FFFFF7D5
:10279000E3FF0121F548FEF794FAFFF7DDFFFFF7AD
:1027A000DBFFFFF7D9FFFFF7D7FF10BD70B5054678
:1027B000002423E005FA04F010F0800F04D001217A
:1027C000EA48FEF77EFA03E00121E848FEF77BFACB
:1027D000FFF7C2FF0221E548FEF773FAFFF7BCFFDF
:1027E000FFF7BAFFFFF7B8FFFFF7B6FFFFF7B4FF39
:1027F0000221DE48FEF767FA601CC4B2082CD9DB60
:10280000FFF7AAFFFFF7A8FF0121D848FEF759FA02
:10281000FFF7A2FFFFF7A0FF0221D448FEF751FA0D
:102820000121D248FEF74DFAFFF796FF0121CF486C
:10283000FEF72DFA012803D10020CD49087002E0EF
:102840000120CB4908700221C848FEF73CFAFFF787
:1028500083FFFFF781FF70BD10B50121C348FEF76C
:1028600030FAFFF779FF0221C048FEF72AFAFFF796
:1028700073FFFFF771FFFFF76FFFFFF76DFFFFF7C4
:102880006BFF0121B948FEF71EFAFFF765FFFFF75E
:1028900063FFFFF761FFFFF75FFFFFF75DFF0221B7
:1028A000B248FEF710FAFFF757FFFFF755FF10BDCC
:1028B00070B506460D461446E04384B2FFF7CCFFE0
:1028C0003046FFF773FFAA48007800B970BD28466C
:1028D000FFF76CFFA648007800B9F7E7E0B2FFF712
:1028E00065FFA348007800B9F0E7200AFFF75EFF14
:1028F0009F48007800B9E9E7FFF736FF00BFE5E73A
:1029000010B501219948FEF7DCF9FFF725FFFFF725
:1029100023FFFFF721FF02219448FEF7D2F9FFF7CA
:102920001BFFFFF719FFFFF717FFFFF715FFFFF773
:1029300013FF02218D48FEF7C6F9FFF70DFFFFF7E1
:102940000BFF10BD70B5002401218848FEF7B9F9CE
:1029500000252BE0FFF700FF02218448FEF7B3F9C2
:10296000FFF7FAFEFFF7F8FEFFF7F6FEFFF7F4FEBB
:10297000FFF7F2FE02217D48FEF7A3F9FFF7ECFE18
:1029800001217A48FEF79DF9FFF7E6FE6006040E86
:1029900001217648FEF77BF9012801D1601CC4B201
:1029A000FFF7DAFEFFF7D8FE681CC5B2082DD1DBB1
:1029B00002216E48FEF787F9FFF7CEFEFFF7CCFE47
:1029C000204670BD10B501216848FEF77CF9FFF77D
:1029D000C3FEFFF7C1FEFFF7BFFE02216348FEF70B
:1029E00070F9FFF7B9FEFFF7B7FEFFF7B5FEFFF787
:1029F000B3FEFFF7B1FE02215C48FEF764F9FFF772
:102A0000ABFEFFF7A9FE10BD2DE9F04104460027FB
:102A10000025FFF721FF2046FFF7C8FE5448007845
:102A200010B90020BDE8F0810020FFF7BFFE50483C
:102A3000007808B90020F5E7FFF70EFF601CFFF7EC
:102A4000B5FE4B48007808B90020EBE7FFF77AFFA6
:102A50000746FFF7B7FFFFF775FF0546FFF750FF83
:102A6000FFF782FE07EB052086B23046DAE708B5AD
:102A700001210420FEF70DFB0320ADF800008DF8C6
:102A8000020014208DF8030069463848FEF76EF8FE
:102A900001210802FEF7FDFA4FF4C640ADF8000030
:102AA00003208DF8020014208DF803006946314898
:102AB000FEF75CF808BD10B54FF480712D48FEF7A5
:102AC00002F9FFF749FE4FF400712A48FEF7F9F8C2
:102AD000FFF742FEFFF740FEFFF73EFEFFF73CFE2A
:102AE000FFF73AFE4FF480712248FEF7EAF8FFF74D
:102AF00033FEFFF731FEFFF72FFEFFF72DFE10BD6F
:102B000070B50546002427E005FA04F010F0800FA8
:102B100005D04FF480711748FEF7D3F804E04FF466
:102B200080711448FEF7CFF8FFF716FE4FF40071DE
:102B30001048FEF7C6F8FFF70FFEFFF70DFEFFF790
:102B40000BFEFFF709FEFFF707FE4FF4007109487F
:102B5000FEF7B9F8601CC4B2082CD5DBFFF7FCFD0A
:102B6000FFF7FAFD4FF48071024805E000080140CC
:102B70003400002000200140FEF7A3F8FFF7ECFD31
:102B8000FFF7EAFD4FF40071FA48FEF79AF84FF4A8
:102B90008071F848FEF795F8FFF7DEFD4FF480717D
:102BA000F448FEF774F8012803D10020F2490870B8
:102BB00002E00120F04908704FF40071ED48FEF783
:102BC00082F8FFF7C9FDFFF7C7FD70BD10B54FF4E0
:102BD0008071E848FEF775F8FFF7BEFD4FF400710D
:102BE000E448FEF76EF8FFF7B7FDFFF7B5FDFFF716
:102BF000B3FDFFF7B1FDFFF7AFFD4FF48071DD4886
:102C0000FEF761F8FFF7A8FDFFF7A6FDFFF7A4FDAB
:102C1000FFF7A2FDFFF7A0FD4FF40071D548FEF7C6
:102C200052F8FFF799FDFFF797FD10BD70B5064606
:102C30000D461446E04384B2FFF7C8FF3046FFF765
:102C40005FFFCD48007800B970BD2846FFF758FFF8
:102C5000C948007800B9F7E7E0B2FFF751FFC6486E
:102C6000007800B9F0E7200AFFF74AFFC248007871
:102C700000B9E9E7FFF71FFF00BFE5E710B54FF424
:102C80000051BC48FEF71FF8FFF766FD4FF4804186
:102C9000B848FEF716F8FFF75FFDFFF75DFDFFF799
:102CA0005BFDFFF759FDFFF757FD4FF40051B148A9
:102CB000FEF707F8FFF750FDFFF74EFDFFF74CFD5D
:102CC000FFF74AFD10BD70B50546002427E005FA60
:102CD00004F010F0800F05D04FF40051A548FDF727
:102CE000F0FF04E04FF40051A248FDF7ECFFFFF7BE
:102CF00033FD4FF480419F48FDF7E3FFFFF72CFDC4
:102D0000FFF72AFDFFF728FDFFF726FDFFF724FD5B
:102D10004FF480419748FDF7D6FF601CC4B2082CE1
:102D2000D5DBFFF719FDFFF717FD4FF40051914870
:102D3000FDF7C7FFFFF710FDFFF70EFD4FF48041D1
:102D40008C48FDF7BEFF4FF400518A48FDF7B9FFEC
:102D5000FFF702FD4FF400518648FDF798FF012868
:102D600003D100208449087002E0012082490870E4
:102D70004FF480417F48FDF7A6FFFFF7EDFCFFF71A
:102D8000EBFC70BD10B54FF400517A48FDF799FF88
:102D9000FFF7E2FC4FF480417648FDF792FFFFF722
:102DA000DBFCFFF7D9FCFFF7D7FCFFF7D5FCFFF7FB
:102DB000D3FC4FF400516F48FDF785FFFFF7CCFCC3
:102DC000FFF7CAFCFFF7C8FCFFF7C6FCFFF7C4FC1F
:102DD0004FF480416748FDF776FFFFF7BDFCFFF732
:102DE000BBFC10BD70B506460D461446E04384B2E8
:102DF000FFF7C8FF3046FFF766FF5F48007800B96D
:102E000070BD2846FFF75FFF5B48007800B9F7E721
:102E1000E0B2FFF758FF5848007800B9F0E7200A01
:102E2000FFF751FF5448007800B9E9E7FFF726FFA4
:102E300000BFE5E710B5FFF71AFE4FF6FF72062157
:102E40004020FFF735FD002202214020FFF730FD32
:102E5000002206214820FFF72BFD002206214420F6
:102E6000FFF726FD002204214820FFF721FD002264
:102E700004214420FFF71CFD4FF6FF72062140207D
:102E8000FFF7B0FF002202214020FFF7ABFF002236
:102E900006214820FFF7A6FF002206214420FFF765
:102EA000A1FF002204214820FFF79CFF00220421FB
:102EB0004420FFF797FF4FF6FF7206214220FFF7ED
:102EC00091FF002202214220FFF78CFF0022062101
:102ED0004A20FFF787FF002206214620FFF782FFE6
:102EE000002204214A20FFF77DFF00220421462012
:102EF000FFF778FF4FF6FF7206214020FFF796FE9E
:102F0000002202214020FFF791FE002206214820E6
:102F1000FFF78CFE002206214420FFF787FE0022E7
:102F200004214820FFF782FE002204214420FFF7FD
:102F30007DFE4FF6FF7206214220FFF777FE00224A
:102F400002214020FFF772FE002206214A20FFF7EF
:102F50006DFE002206214620FFF768FE00220421B4
:102F60004A20FFF763FE002204214620FFF75EFEA1
:102F700010BD0000002001403400002010B54FF4C7
:102F80000051C148FDF79DFEFFF7E6FBFFF7E4FBAC
:102F9000FFF7E2FB4FF48041BB48FDF792FEFFF7DD
:102FA000DBFBFFF7D9FBFFF7D7FBFFF7D5FBFFF7FD
:102FB000D3FB4FF48041B448FDF785FEFFF7CCFB0F
:102FC000FFF7CAFB10BD70B500244FF40051AE48A6
:102FD000FDF777FE00252FE0FFF7BEFB4FF48041A1
:102FE000A948FDF770FEFFF7B7FBFFF7B5FBFFF74A
:102FF000B3FBFFF7B1FBFFF7AFFB4FF48041A248F3
:10300000FDF75FFEFFF7A8FB4FF400519E48FDF768
:1030100058FEFFF7A1FB6006040E4FF400519A48DA
:10302000FDF735FE012801D1601CC4B2FFF794FB07
:10303000FFF792FB681CC5B2082DCDDB4FF4804131
:103040009148FDF740FEFFF787FBFFF785FB204621
:1030500070BD10B54FF400518B48FDF734FEFFF7FB
:103060007BFBFFF779FBFFF777FB4FF48041864846
:10307000FDF727FEFFF770FBFFF76EFBFFF76CFB1A
:10308000FFF76AFBFFF768FB4FF480417E48FDF7CE
:103090001AFEFFF761FBFFF75FFB10BD2DE9F04162
:1030A000044600270025FFF76DFE2046FFF70BFEC4
:1030B0007648007810B90020BDE8F0810020FFF7C5
:1030C00002FE7248007808B90020F5E7FFF75AFEC3
:1030D000601CFFF7F8FD6D48007808B90020EBE7A9
:1030E000FFF771FF0746FFF7B4FFFFF76CFF0546D8
:1030F000FFF744FFFFF7C2FD07EB052086B230461D
:10310000DAE710B54FF480715F48FDF7DAFDFFF79D
:1031100023FBFFF721FBFFF71FFB4FF400715A4819
:10312000FDF7CFFDFFF718FBFFF716FBFFF714FBCA
:10313000FFF712FBFFF710FB4FF400715248FDF749
:10314000C2FDFFF709FBFFF707FB10BD70B50024B8
:103150004FF480714C48FDF7B4FD00252FE0FFF7D8
:10316000FBFA4FF400714848FDF7ADFDFFF7F4FAA4
:10317000FFF7F2FAFFF7F0FAFFF7EEFAFFF7ECFAD3
:103180004FF400714048FDF79CFDFFF7E5FA4FF45E
:1031900080713D48FDF795FDFFF7DEFA6006040EED
:1031A0004FF480713848FDF772FD012801D1601C91
:1031B000C4B2FFF7D1FAFFF7CFFA681CC5B2082DE9
:1031C000CDDB4FF400713048FDF77DFDFFF7C4FA09
:1031D000FFF7C2FA204670BD10B54FF480712A483F
:1031E000FDF771FDFFF7B8FAFFF7B6FAFFF7B4FA8B
:1031F0004FF400712448FDF764FDFFF7ADFAFFF7C7
:10320000ABFAFFF7A9FAFFF7A7FAFFF7A5FA4FF411
:1032100000711D48FDF757FDFFF79EFAFFF79CFA76
:1032200010BD2DE9F041044600270025FFF7CEFC34
:103230002046FFF765FC1548007810B90020BDE86E
:10324000F0810020FFF75CFC1048007808B90020EE
:10325000F5E7FFF7BBFC601CFFF752FC0B4800785A
:1032600008B90020EBE7FFF771FF0746FFF7B4FF4F
:10327000FFF76CFF0546FFF744FFFFF71CFC07EB69
:10328000052086B23046DAE70020014034000020F5
:1032900010B5044621465348FEF788F800BF402188
:1032A0005048FEF7DAF80028F9D010BD10B586B006
:1032B0000446012144F20400FDF7EBFE4FF40070D8
:1032C000ADF8040003208DF8060018208DF80700E3
:1032D00001A94548FDF74AFC4FF40060ADF8040031
:1032E00010208DF8070001A93F48FDF73FFC04209E
:1032F0008DF807000002ADF8040001A93A48FDF777
:1033000035FC01218803FDF7C4FE02940020ADF8CE
:103310000C00ADF80E00ADF81000ADF814000C2054
:10332000ADF8120002A92F48FDF767FF40212D4894
:10333000FEF79CF8012240F225512A48FDF7D7FFFD
:1033400001212848FDF7C7FF4FF400612648FDF72B
:10335000BAFC0020FFF79CFF06B010BD10B5044674
:103360000BE014F8011B1F48FEF720F800BF4021B6
:103370001C48FEF772F80028F9D020780028F0D118
:1033800010BD4FF6FF7000BF0100A0F10100FBD19E
:10339000704770B505460E464FF400611248FDF7C0
:1033A00090FCFFF7EEFF00BF40210E48FEF755F8F6
:1033B0000028F9D000240CE0295D0A48FDF7F6FF4B
:1033C00000BF40210748FEF748F80028F9D0601CEC
:1033D000C4B2B442F0DB4FF400610348FDF773FC64
:1033E00070BD0000003801400008014000F06EF898
:1033F00000F087F8FDF724F914E02B4A00212B4850
:10340000006800F08AFC044629492046FDF7E0F9EF
:103410006421284801F06FFE002027490860012040
:1034200026490860E9E73EE0254800684079012820
:1034300019D1234800684078A8B121480068C078B5
:10344000401EC4B200201E49096848712046FDF79D
:1034500004FB38B901201A490968C87100201849CD
:103460000968487000BF0A2300221146104601F087
:10347000EAFC14480068401C1249086008460068CD
:10348000642804D14FF400610F48FDF71CFC0D487F
:103490000068C82807D14FF400610B48FDF711FC04
:1034A000002008490860BFE73C0000204C000020D5
:1034B000BC0200200104002018000020140000209D
:1034C0000C000020380000200020014010B5002032
:1034D00000F098FB0F490860002001F095F80E49B4
:1034E0000860002000F08EFB0C490860002000F00E
:1034F00089FB0B490860002000F084FB0949086043
:1035000010BD10B50423084A0021084801F042FA12
:1035100010BD000050000020540000204800002092
:10352000440000204C0000206408002027340008DC
:10353000002400BF02E0C82001F052FCFF480078E0
:103540000028F8D0FE4800686421B0FBF1F0FC4987
:1035500008600846006828B90020FA490870FF2072
:1035600001F075FB00BF01F005FD0446F648006858
:10357000F64908600020F4490860204601F0FEFC8E
:10358000F2480068EE490968B0FBF1F0C0F1640050
:10359000EC49087001F046FD642001F021FCE2E7EF
:1035A00010B50923EA4A0021AFF27B0001F0F2F9DD
:1035B00010BD002400BF00BF01F0DCFC0446E2485F
:1035C0000068401CE0490860204601F0D7FC01F08B
:1035D00028FDF1E710B50A23DE4A0021AFF22D00E5
:1035E00001F0D8F910BD04E0002200F8012B4A1EBA
:1035F00091B20029F8D1704770B59021D648FFF7F5
:10360000F2FF00230BE0581C85B2D34800EB0314F3
:1036100000EB0516002020706660581C83B2082B52
:10362000F1D3CD4800EB0314002020706060CA483D
:10363000CA49086070BD70B54FF4B471C848FFF74F
:10364000D2FF2C21C748FFF7CEFF00230DE0581C06
:10365000C5B203EBC300C24901EB800405EBC50012
:1036600001EB80066660581CC3B2092BEFD303EB55
:10367000C300BB4901EB800400206060BA490860C8
:10368000B748BA49086070BD0021B94A11700020DE
:1036900004E00021B74A1154411CC8B20228F8D3F3
:1036A0000021B54A1170B54A1170B54A1160B54A8A
:1036B000116070470020B4490870B4490870B449DB
:1036C0000870B4490870B44908609F4908609F4970
:1036D00008609B49086099490870704710B501F06F
:1036E0009BFCFFF7E7FFFFF7CFFFFFF7A4FFFFF714
:1036F00083FF00F065FFFFF76DFFFFF751FF01F05B
:103700008DFC10BDA3480078012808D19E480078A0
:10371000FF2804D29C480078401C9B4908707047E1
:103720009E49934A1278885C9249095C9B4A515C95
:1037300001EBC001914A1170704710B50024954803
:103740000078012829D101F015FC04468E48007844
:1037500020B18D480078401E8B4908708A48007857
:10376000C0B98A480078A8B9FFF7DAFF7D488349D5
:10377000097850F8210082490860804800787E4925
:103780000978884206D084480068401C8249086055
:1037900001F00CFC204601F0F1FB10BD10B57D4896
:1037A000007890B9FFF7BCFF744800787249087040
:1037B0006C487249097850F8210071490860084640
:1037C00000687049086001F0DCFB10BD10B50024F2
:1037D000022001F005FB01F0CDFB044600205A4910
:1037E0000860204601F0CAFB642001F0F9FA01F0FC
:1037F000C1FB0446544800685149086001204F4904
:103800000870204601F0BAFB10BD70B50026614873
:10381000007801284BD16248007820B1012804D0FB
:10382000022809D103E001250BE0002509E001256C
:1038300001205B49087004E0012500205849087008
:1038400000BF00BF05B970BD474804682CE001F017
:1038500091FB0646606918B36069401E606160694B
:10386000F0B9207E10F0370F06D0207E00F0C8009F
:1038700020760120607601E000206076207E10F046
:10388000080F0DD1A07F3A490978084338490870DC
:10389000207F3849085C617F0843217F354A5054B6
:1038A0006468304601F06AFBA07E0A28CFD100BFD1
:1038B000C9E740F223107047704710B5027F01F14D
:1038C0000B039B5C447FE443E4B2234001F10B040F
:1038D000A35423469B5C2BB98B7A847FE443E4B2E8
:1038E00023408B7210BD2DE9F04F05460F469046E0
:1038F0009946A87A29490E5C05F10B00805D11F804
:1039000000B00BEBC60000F0FF0A164850F82A4042
:10391000002060612761207E6FEA0801C9B208407B
:10392000207684F81990207E10F0080F40D1A07FF7
:103930000F49097808430E49087033E06C000020F5
:103940006400002060000020780000206800002053
:10395000F40A0020F40C0020680800205C0000201D
:10396000240D0020F80C002088000020800000209A
:1039700071000020720000206F0000207000002005
:10398000840000207C0000206D0000206E000020DC
:1039900075000020740000205800002078530008B3
:1039A0008C0000207F48805D617F08437D498855F9
:1039B00029462046FFF781FF5046BDE8F08F10B53D
:1039C000794A1268D060784A1268137F00F10B02BE
:1039D000D25C754B1B685B7F1A43734B1B681C7F63
:1039E00000F10B031A55827A6F4B1B689B7F1A43B9
:1039F00082726D4A1268117F6A4A525C6A4B1B6878
:103A00005B7FDB43DBB21A40664B5A541A46525C6A
:103A10004AB9654A1268927FD243D2B2634B1B788F
:103A20001A40624B1A7010BD014600228A720020B3
:103A300005E0002301F10B021354421CD0B202280E
:103A4000F7D3704705E011F8013B00F8013B531E26
:103A50009AB2002AF7D1704710B5002401F08AFA13
:103A6000044653480078C0B952480078A8B9FFF717
:103A700057FE51485149097850F8210050490860D3
:103A80004E4800784F490978884206D04E48006871
:103A9000401C4D49086001F084FA204601F06EFA9E
:103AA00010BD0146002002E0491C421CD0B20A7839
:103AB000002AF9D170472DE9F84F05460F46904688
:103AC0009946DDE90AAB0020009001F053FA00901E
:103AD0003E480468002C60D03C496068086000984B
:103AE00001F04CFA2760A5760020207660766061B0
:103AF00000BF00BF00BF0C980C9000BF0020E07713
:103B0000E810207705F00700E076217F012088404B
:103B1000A077E17E0120884060770020E06020618E
:103B2000002606E0002104F1200040F82610701C59
:103B3000C6B2002EF6D0204601F0C3FA204601F0AE
:103B40006EFA01F017FA00901B4840F82540204813
:103B5000006860600020A0601D48006810B11C482B
:103B6000006884601A480460A07F104909780843FF
:103B70000E490870207F0B49085C617F0843217F54
:103B8000084A505413480078401C124908700098A5
:103B900001F0F4F90020BDE8F88F009801F0EEF98B
:103BA0004220F8E7720000207C0000207100002015
:103BB0006D0000206E000020F80C00207000002036
:103BC000840000206F0000205800002080000020AA
:103BD000880000207500002070B5044600260CB94E
:103BE000002070BD2078012801D00020F9E701F005
:103BF000C1F90646656800206060304601F0BEF9F4
:103C00002846EEE770B505460026F148007808B171
:103C1000002070BD01F0AEF90646EE480468006869
:103C200020B1EC4800684068EA490860304601F07D
:103C3000A5F93CB10120207000202081656020465C
:103C4000FFF7F2FE2046E4E72DE9F04704468846F8
:103C500015464FF0000924B9042028702046BDE81D
:103C6000F0872078012803D0012028702046F6E74D
:103C7000D748007818B10F2028702046EFE701F0F0
:103C800079F98146A07A08B1012700E00027B8F150
:103C9000000F03D0B8F1010F35D117E07FB9002034
:103CA0002070CC480068606000202081C948046012
:103CB000484601F063F900202870002605E04846D8
:103CC00001F05CF949202870264623E005E0002336
:103CD000022219462046FFF706FEA07A0028F6D1F8
:103CE0002070BC480068606000202081B9480460F2
:103CF000484601F043F9012F01D1FFF7ADFE002046
:103D00002870002606E0484601F038F907202870A0
:103D1000264600BF00BF3046A1E72DE9F041054629
:103D20000F4614464FF0000825B9042020700020EB
:103D3000BDE8F0812878012803D001202070002000
:103D4000F6E7A348007818B1022020700020EFE7C2
:103D5000A148007818B10D2020700020E8E701F09C
:103D600009F980466E6846B100206860404601F05F
:103D700005F9002020703046DAE798480068007E98
:103D800040F00200954909680876002093490968C7
:103D900048769248006847612846FFF710FE404683
:103DA00001F0ECF8FFF758FE01F0E4F880468B488C
:103DB0000068407E20B101280DD002280AD105E01C
:103DC000864800680669002020700DE000260E205D
:103DD000207009E000BF294680480068FFF76DFDAC
:103DE00000260A20207000BF00BF00207B49096820
:103DF00008767A490968487678490968C860774939
:103E000009680861404601F0B9F8304690E72DE9AD
:103E1000F04104460F4615464FF0000824B904202F
:103E200028700020BDE8F0812078012803D001200F
:103E300028700020F6E701F09DF88046A07A20B3B4
:103E400000267FB1012F0CD107E002231A46002182
:103E50002046FFF748FD701CC6B2A07A0028F4D1B6
:103E600009E000BF02231A4600212046FFF73BFD70
:103E7000701CC6B200BF00BF404601F07FF8FFF7DC
:103E8000EBFD0E2028703046CCE7404601F076F876
:103E90000020287000BFC5E770B504460D46002617
:103EA0000CB9042070BD0DB90320FBE72078012870
:103EB00001D00120F6E701F05DF80646A07A60B176
:103EC0000023022229462046FFF70DFD304601F06F
:103ED00055F8FFF7C1FD0020E4E7606820B13046E7
:103EE00001F04CF81420DDE76560304601F046F83B
:103EF0000020D7E72DE9F04104460D46164600277D
:103F000014B90420BDE8F0810DB90320FAE7207848
:103F1000012801D00120F5E701F02CF80746A07A2E
:103F2000E8B116F0010F0AD005E00023022229466D
:103F30002046FFF7D8FCA07A0028F6D105E0002340
:103F4000022229462046FFF7CEFC384601F016F83B
:103F500016F0040F01D1FFF77FFD0020D2E7606863
:103F600020B1384601F00AF81420CBE765603846E6
:103F700001F004F80020C5E72DE9F04704460D469E
:103F80004FF0000914B90420BDE8F0870DB90920ED
:103F9000FAE72078012801D00120F5E700F0EAFFD8
:103FA0008146A07AA87104F10B0705F104080026E8
:103FB00005E017F8010B08F8010B701CC6B2022EC1
:103FC000F7D360682860484600F0D8FF0020DBE7A0
:103FD0006D0000205C0000206E0000207C000020AE
:103FE0002DE9F04106460D464FF0000826B90420A1
:103FF00028700020BDE8F0813078022803D001202D
:1040000028700020F6E700F0B5FF80467468E08A6B
:1040100078B12169081D20610F68E08A401EE082A6
:10402000A1682069884201D1606820610020287061
:1040300002E01F2028700027404600F09FFF38460E
:10404000D8E72DE9F04106460F464FF00008FE483C
:10405000007810B10020BDE8F08100F08BFF8046B1
:10406000FA480568006820B1F84800684068F749D8
:104070000860404600F082FF3DB300F07BFF8046C1
:10408000F3480468C4B100680068F149086040461C
:1040900000F074FF666006EB8700A060E6602661B2
:1040A000A7820020E08202202870002028816C6016
:1040B0002846FFF7B9FC08E0E44800686860E34878
:1040C0000560404600F05AFF00252846C3E72DE969
:1040D000F0470446894615464FF0000A24B90420EB
:1040E00028702046BDE8F0872078022803D0012000
:1040F00028702046F6E7D448007818B10F202870C1
:104100002046EFE700F036FF8246A07A10B14FF06C
:10411000010801E04FF00008B9F1000F03D0B9F138
:10412000010F45D11FE0B8F1000F15D16668C848EE
:1041300000683060C648066000202070C3480068F0
:10414000606000202081C1480460504600F016FFE6
:1041500000202870002705E0504600F00FFF49209E
:10416000287027462BE005E000230422194620464C
:10417000FFF7B9FBA07A0028F6D16668B44800685A
:104180003060B348066000202070B048006860606E
:1041900000202081AD480460504600F0EFFEB8F1E9
:1041A000010F01D1FFF758FC00202870002706E01E
:1041B000504600F0E3FE07202870274600BF00BFEE
:1041C00038468FE770B5054600260DB9042070BD4E
:1041D0002878022801D00120F9E700F0CBFE06463E
:1041E0006C686068E060606820610020E0823046B2
:1041F00000F0C4FE0020EAE72DE9F04706468846B5
:1042000015464FF0000926B9042028700020BDE8AB
:10421000F0873078022803D0012028700020F6E7CC
:104220008948007818B1022028700020EFE78948FB
:10423000007818B10D2028700020E8E700F09AFE01
:1042400081467468E08A98B12169081D20610F6871
:10425000E08A401EE082A1682069884201D160683E
:104260002061484600F08AFE002028703846CEE7DC
:1042700079480068007E40F00400774909680876B4
:10428000002075490968487673480068C0F81480B2
:104290003046FFF794FB484600F070FEFFF7DCFB6A
:1042A00000F068FE81466C480068407E20B101281D
:1042B0000DD002280AD105E0674800680769002090
:1042C00028700DE000270E20287009E000BF31465D
:1042D00061480068FFF7F1FA00270A20287000BF44
:1042E00000BF00205C49096808765B490968487688
:1042F00059490968C860584909680861484600F08A
:104300003DFE384683E72DE9F04104460F46154649
:104310004FF0000824B9042028700020BDE8F08187
:104320002078022803D0012028700020F6E700F052
:1043300021FE8046A07A20B300267FB1012F0CD148
:1043400007E00223042200212046FFF7CCFA701C6C
:10435000C6B2A07A0028F4D109E000BF02230422EB
:1043600000212046FFF7BFFA701CC6B200BF00BF95
:10437000404600F003FEFFF76FFB0E20287030462A
:10438000CCE7404600F0FAFD0020287000BFC5E7EA
:104390002DE9F04105460E46002715B90420BDE879
:1043A000F0812878022801D00120F8E700F0E2FD32
:1043B0000746A87A60B10023042231462846FFF759
:1043C00092FA384600F0DAFDFFF746FB0020E6E7F8
:1043D0006C68E08AA18A884204DB384600F0CEFD92
:1043E0001E20DCE7E168081DE0600E60E08A401CEA
:1043F000E082D4E90210884201D16068E06038466A
:1044000000F0BCFD0020CAE72DE9F04105460E464C
:10441000002715B90420BDE8F0812878022801D0D2
:104420000120F8E700F0A6FD0746A87AB0B1002306
:10443000042231462846FFF756FA384600F09EFD22
:10444000FFF70AFB0020E6E76D0000205C0000207B
:10445000900000206E0000207C0000206C68E08A44
:10446000A18A884204DB384600F088FD1E20D2E78E
:1044700061682069884201D1A06820612069001F1D
:10448000206120690660E08A401CE082384600F026
:1044900075FD0020BFE72DE9F04105460F461646A1
:1044A0004FF0000815B90420BDE8F08128780228F3
:1044B00001D00120F8E700F05DFD8046A87AE8B160
:1044C00016F0010F0AD005E00023042239462846E1
:1044D000FFF709FAA87A0028F6D105E000230422A4
:1044E00039462846FFF7FFF9404600F047FD16F031
:1044F000040F01D1FFF7B0FA0020D5E76C68E08A1D
:10450000A18A884204DB404600F038FD1E20CBE73C
:1045100016F0020F0BD061682069884201D1A068B3
:1045200020612069001F20612069076009E0E168BF
:10453000081DE0600F60D4E90210884201D1606874
:10454000E060E08A401CE082404600F017FD002059
:10455000AAE72DE9F04705460C464FF0000A15B9C9
:104560000420BDE8F0870CB90920FAE72878022872
:1045700001D00120F5E700F0FDFC8246A87AA07288
:1045800005F10B0804F10809002705E018F8010BF4
:1045900009F8010B781CC7B2022FF7D36E68F08AB6
:1045A00018B130690068206001E000202060F08AC6
:1045B000A080B08AE080504600F0E0FC0020D0E708
:1045C000034804490860002009680860704700003B
:1045D0008C0E00209000002070B5044600260CB917
:1045E000002070BD2078032801D00020F9E700F0FA
:1045F000C1FC0646258915B12089401E2081304620
:1046000000F0BCFC2846ECE770B505460026DD4806
:10461000007808B1002070BD00F0ACFC0646DA4816
:104620000468006820B1D84800684068D64908602E
:10463000304600F0A3FC3CB103202070258100200F
:1046400060602046FFF7F0F92046E4E72DE9F047E7
:104650000446884615464FF0000924B90420287006
:104660002046BDE8F0872078032803D00120287079
:104670002046F6E7C348007818B10F20287020467E
:10468000EFE700F077FC8146A07A08B1012700E04F
:104690000027B8F1000F03D0B8F1010F35D117E0B2
:1046A0007FB900202070B848006860600020208139
:1046B000B5480460484600F061FC002028700026E0
:1046C00005E0484600F05AFC49202870264623E0C1
:1046D00005E00023012219462046FFF704F9A07ADD
:1046E0000028F6D12070A848006860600020208172
:1046F000A5480460484600F041FC012F01D1FFF7B6
:10470000ABF900202870002606E0484600F036FC91
:1047100007202870264600BF00BF3046A1E72DE9DC
:10472000F04105460E46144600271DB904202070AE
:10473000BDE8F0812878032802D001202070F7E737
:104740009048007810B102202070F1E78F4800787F
:1047500010B10D202070EBE700F00CFC0746288913
:1047600040B12889401E2881384600F007FC00200F
:104770002070DDE786480068007E40F00100844933
:1047800009680876002082490968487680480068F0
:1047900046612846FFF713F9384600F0EFFBFFF7B4
:1047A0005BF900F0E7FB074679480068407E20B1DE
:1047B000012809D0022806D102E0002020700BE079
:1047C0000E20207008E000BF294671480068FFF7FE
:1047D00074F80A20207000BF00BF00206C490968EF
:1047E00008766B490968487669490968C86038469F
:1047F00000F0C4FB00BF9BE72DE9F04104460F46E3
:1048000015464FF0000824B9042028700020BDE8A8
:10481000F0812078032803D0012028700020F6E7DB
:1048200000F0A8FB8046A07A20B300267FB1012FBC
:104830000CD107E00223012200212046FFF753F8A4
:10484000701CC6B2A07A0028F4D109E000BF022390
:10485000012200212046FFF746F8701CC6B200BFB7
:1048600000BF404600F08AFBFFF7F6F80E202870E4
:104870003046CCE7404600F081FB0020287000BFA6
:10488000C5E770B5044600250CB9042070BD20783A
:10489000032801D00120F9E700F06CFB0546A07A5F
:1048A00060B10023012219462046FFF71CF8284674
:1048B00000F064FBFFF7D0F80020E7E720894FF60F
:1048C000FF71884207D22089401C2081284600F0D1
:1048D00055FB0020DAE7284600F050FB3320D5E7EF
:1048E0002DE9F04704460D464FF0000914B90420A5
:1048F000BDE8F0870DB90920FAE72078032801D038
:104900000120F5E700F036FB8146A07A287104F11A
:104910000B0705F10208002605E017F8010B08F85F
:10492000010B701CC6B2022EF7D32089288048469E
:1049300000F024FB0020DBE72DE9F04104460E46A1
:10494000154600271CB904202870BDE8F0812078A6
:10495000032802D001202870F7E700F00BFB074680
:1049600000202870208908B1268105E0A07A08B9C6
:10497000268101E049202870384600F0FFFA00BF88
:10498000E3E700006D0000205C0000206E000020C6
:104990007C0000202DE9FE4F06460F4690461C463F
:1049A0004FF000090A2C02D92A20BDE8FE8F00F042
:1049B000E1FA8146FA48007820B1484600F0DEFA74
:1049C0003C20F2E7F74850F8240058BB0120F54995
:1049D00041F82400484600F0D1FA00234246394607
:1049E000304600F020FB82460023009301931A46D4
:1049F000514620460293FFF75EF8054635B9EA486E
:104A0000007801280CD1FFF727F809E000F0B2FA8E
:104A100081460020E34941F82400484600F0AEFA00
:104A20002846C2E7484600F0A9FA2820BDE770B53D
:104A300005460026DA48007808B1402070BD0A2DEE
:104A400001D13E20FAE70A2D03D3FF2D01D02A2001
:104A5000F4E700F08FFA0646FF2D02D1D348006834
:104A6000857ED04850F8254024B9304600F086FABB
:104A70004320E3E7012C04D1304600F07FFA3D20CB
:104A8000DCE7207FCA49085C617FC943C9B208409E
:104A9000217FC74A5054207F1146085C38B9A07F57
:104AA000C043C0B2C34909780840C2490870E068F1
:104AB00018B12046E168FEF700FF00206061207613
:104AC0006076BD480078FF2804D2BB480078401CBF
:104AD000B9490870304600F051FAFEF7EDFE00F0DB
:104AE00049FA0646B448007820B1B3480078401E21
:104AF000B1490870204600F093FAB0480078401E93
:104B0000AE4908700020A74941F82500A06830B9D7
:104B1000002061688860AA496068086005E0D4E9FF
:104B200001014860D4E901108860A648006860600F
:104B3000A4480460304600F021FA9B480078012820
:104B400001D1FEF789FF002078E72DE9F041044606
:104B500000270A2C02D13E20BDE8F0810A2C03D3A5
:104B6000FF2C01D02A20F7E7FF2C0AD100F002FA2F
:104B700007468E480068C67F384600F0FFF9304689
:104B8000EAE700F0F7F90746864850F8245025B9BF
:104B9000384600F0F3F94320DEE7012D04D1384612
:104BA00000F0ECF93D20D7E73F20E877384600F0E9
:104BB000E5F90020D0E770B5054600260A2D01D39F
:104BC0002A2070BD00F0D6F90646764850F82540F8
:104BD00024B9304600F0D2F94620F2E7012C04D186
:104BE000304600F0CBF94320EBE7207E10F0080FB1
:104BF00028D0207E00F0F7002076207EE8B960699A
:104C0000B8B9A07F6B49097808436A490870207FCA
:104C10006749085C617F0843217F654A50543046EC
:104C200000F0ACF960480078012809D1FEF714FFC4
:104C300006E0304600F0A2F902E0304600F09EF9AE
:104C40000020BEE7304600F099F94420B9E72DE98D
:104C5000F04105464FF000080A2D02D14720BDE87B
:104C6000F0810A2D03D3FF2D01D02A20F7E700F0B1
:104C700081F98046FF2D04D14C480068857E0126CD
:104C800007E04A480068807EA84201D1012600E082
:104C90000026444850F8254024B9404600F06EF9FB
:104CA0004820DCE7012C04D1404600F067F943209E
:104CB000D5E7277F3E48C05D617FC943C9B2084040
:104CC0003B49C8550846C05D38B9A07FC043C0B253
:104CD00038490978084037490870207E40F00800BC
:104CE0002076404600F04AF9012E01D1FEF7B4FECD
:104CF0000020B4E72DE9F04704460E4615464FF074
:104D000000090A2C06D3FF2C04D02A20287000208A
:104D1000BDE8F0871EB1082028700020F8E700F0F9
:104D200029F98146FF2C02D12048076802E01D487E
:104D300050F8247007F1200050F82680484600F013
:104D40001DF9002028704046E2E72DE9F0470446AF
:104D50000E4690461D464FF000090A2C05D3FF2C45
:104D600003D02A202870BDE8F08716B108202870EB
:104D7000F9E700F0FFF88146FF2C02D10B480768E5
:104D800002E0084850F8247007F1200040F826801F
:104D9000484600F0F3F80020287000BFE3E7000069
:104DA0006D000020F80C0020740000207C00002022
:104DB00072000020710000206E00002075000020AD
:104DC000880000208000002010B50448006800F032
:104DD00024F9FF20FFF72BFE10BD00007C0000200F
:104DE00070B5054600265D48007800B170BD5C488E
:104DF000007800B1FAE725B300F0BCF80646594840
:104E00000068047F5848005D56490968497FC943D6
:104E1000C9B20840544908550846005D48B9514890
:104E20000068807FC043C0B25049097808404F49AC
:104E300008704C4800684561304600F09FF8FEF766
:104E40000BFE00BFD2E72DE9F04107460D4616469E
:104E50001C464248007810B15520BDE8F08140481A
:104E6000007808B13220F8E727B91DB916B90CB996
:104E70005420F2E73B2D01D95120EEE73B2E01D91A
:104E80005220EAE7B4F57A7F01D35320E5E74FF4E7
:104E90007A7060434FF47A71B0FBF1F14FF46160C6
:104EA0007843C5EB051200EB8200304400EB400272
:104EB000C2EBC01001EBC0084046FFF791FF002095
:104EC000CBE770B5054600260A2D01D32A2070BD18
:104ED00000F050F80646264850F8254024B93046E0
:104EE00000F04CF84320F2E7012C04D1304600F0EA
:104EF00045F84320EBE7606920B9304600F03EF802
:104F00005020E4E700206061207E10F0370F06D0CB
:104F1000207E20F0370020760120607601E000201E
:104F20006076207E10F0080F13D1A07F0F4909781A
:104F300008430E490870207F0B49085C617F0843D5
:104F4000217F094A5054304600F018F8FEF784FDDE
:104F500002E0304600F012F80020B8E76D000020B3
:104F60006E0000207C0000207200002071000020F4
:104F7000F80C0020EFF3108072B6704780F31088B1
:104F800070471D484FF0FF010170002080F3098831
:104F90001A48012101701A484FF08051016062B631
:104FA000FEE717484FF080510160704714484FF0FA
:104FB00080510160704772B6EFF3098028B1203844
:104FC00080E8F00F0F490968086000B50E48804777
:104FD0005DF804EB0D480E490A78027009480D4946
:104FE0000A680260106890E8F00F203080F30988AA
:104FF0004EF0040E62B6704722ED00E0740000200F
:1050000004ED00E07C000020C15000086F0000208B
:105010007000002084000020704770477047704780
:1050200070477047704770B5044610464FF0807562
:105030000560051F28462C606FF00106051F2846F5
:105040002E604FF01236051F28462E604FF00336B3
:10505000051F28462E604FF00236051F28462E6099
:105060007610051F28462E60051F284629604FF040
:105070001136051F28462E604FF01036051F2846B2
:105080002E604FF00936051F28462E604FF0083677
:10509000051F28462E604FF00736051F28462E6054
:1050A0004FF00636051F28462E604FF00536051FC7
:1050B00028462E604FF00436051F28462E6070BD2E
:1050C0007047704740EA01039B0703D009E008C915
:1050D000121F08C0042AFAD203E011F8013B00F8BD
:1050E000013B521EF9D27047D2B201E000F8012B09
:1050F000491EFBD270470022F6E710B50446084669
:10510000114602462046FFF7EFFF204610BD01463C
:10511000002000E0401C0A5C002AFBD17047000020
:10512000064C074D06E0E06840F0010394E80700F4
:1051300098471034AC42F6D3FAF7FEFF78540008D3
:105140009854000802E008C8121F08C1002AFAD1CA
:1051500070477047002001E001C1121F002AFBD1F7
:10516000704700C1814001C0804101C0804100C141
:10517000814001C0804100C1814000C1814001C027
:10518000804101C0804100C1814000C1814001C017
:10519000804100C1814001C0804101C0804100C107
:1051A000814001C0804100C1814000C1814001C0F7
:1051B000804100C1814001C0804101C0804100C1E7
:1051C000814000C1814001C0804101C0804100C1D7
:1051D000814001C0804100C1814000C1814001C0C7
:1051E000804101C0804100C1814000C1814001C0B7
:1051F000804100C1814001C0804101C0804100C1A7
:10520000814000C1814001C0804101C0804100C196
:10521000814001C0804100C1814000C1814001C086
:10522000804100C1814001C0804101C0804100C176
:10523000814001C0804100C1814000C1814001C066
:10524000804101C0804100C1814000C1814001C056
:10525000804100C1814001C0804101C0804100C146
:10526000814000C0C101C30302C2C60607C705C50D
:10527000C404CC0C0DCD0FCFCE0E0ACACB0BC9097E
:1052800008C8D81819D91BDBDA1A1EDEDF1FDD1D8E
:105290001CDC14D4D515D71716D6D21213D311D1BE
:1052A000D010F03031F133F3F23236F6F737F5350E
:1052B00034F43CFCFD3DFF3F3EFEFA3A3BFB39F93E
:1052C000F83828E8E929EB2B2AEAEE2E2FEF2DED0E
:1052D000EC2CE42425E527E7E62622E2E323E1217E
:1052E00020E0A06061A163A3A26266A6A767A5658E
:1052F00064A46CACAD6DAF6F6EAEAA6A6BAB69A9FE
:10530000A86878B8B979BB7B7ABABE7E7FBF7DBD0D
:10531000BC7CB47475B577B7B67672B2B373B1713D
:1053200070B050909151935352929656579755950D
:1053300094549C5C5D9D5F9F9E5E5A9A9B5B9959BD
:105340005898884849894B8B8A4A4E8E8F4F8D4D8D
:105350004C8C4484854587474686824243834181FD
:105360008040000000A24A0400A24A0400A24A04AD
:105370000051250200A24A040000010002000100C1
:10538000030001000200010004000100020001000E
:1053900003000100020001000500010002000100FD
:1053A00003000100020001000400010002000100EE
:1053B00003000100020001000600010002000100DC
:1053C00003000100020001000400010002000100CE
:1053D00003000100020001000500010002000100BD
:1053E00003000100020001000400010002000100AE
:1053F000030001000200010007000100020001009B
:10540000030001000200010004000100020001008D
:10541000030001000200010005000100020001007C
:10542000030001000200010004000100020001006D
:10543000030001000200010006000100020001005B
:10544000030001000200010004000100020001004D
:10545000030001000200010005000100020001003C
:10546000030001000200010004000100020001002D
:105470000300010002000100985400080000002011
:1054800094000000445100082C55000894000020AE
:10549000141000005451000800000000000000003B
:1054A00000000000000000000000000000000000FC
:1054B00000000000000000000000000001020304E2
:1054C00001020304060708090204060800000000A0
:1054D00000000000000000000000000000000000CC
:1054E00000000000000000000000000000000000BC
:1054F00000000000000000000000000000000000AC
:10550000000000000000000000000000000000009B
:10551000000000000000000000000000000000008B
:0C5520000000000000000000000000007F
:0400000508000147A7
:00000001FF
